:020000040000FA
:060000000A128A11FC2F18
:100DDA008312031308080139F22E08008312031341
:100DEA00080C0139F82E0800700C83120313031C37
:100DFA008813031888170800700C83120313031C46
:100E0A000813031808170800700C83120313031C35
:100E1A008812031888160800831603138813081308
:100E2A0088128814081583120313880108002B2FCF
:100E3A000130F0020030031CF103F102C730F20066
:100E4A00262FF20B252F292F2A2F2B2F70087104FA
:100E5A00031D302F312F1D2F322F0800F501F60107
:100E6A00DE2FDE2F0A128A1111270A128A11013087
:100E7A00F5000030F600DE2F0A128A11F3260A1254
:100E8A008A11013A031D4A2F4B2FDE2F0230F5003B
:100E9A000030F600DE2FDE2F0130F0000030F100C6
:100EAA000A128A11F9260A128A110130F00000305A
:100EBA00F1000A128A1101270A128A110030F00081
:100ECA00F1000A128A1109270A128A11B830F300AE
:100EDA000B30F4000330F5000030F600DE2F01304D
:100EEA00F0000030F1000A128A111C270A128A1136
:100EFA00FF30F3070318F40AFF30F4077408803A46
:100F0A00FF0080307F02031D8C2F0130730203180B
:100F1A008F2F902FDE2F0430F5000030F600DE2FE1
:100F2A00DE2F0130F0000030F1000A128A11F92692
:100F3A000A128A110030F000F1000A128A11012700
:100F4A000A128A110130F0000030F1000A128A11E7
:100F5A0009270A128A110A128A11ED260A128A111F
:100F6A00013A031DB92FBA2FDE2F0530F5000030E4
:100F7A00F600DE2FDE2F0030F000F1000A128A118F
:100F8A00F9260A128A110030F000F1000A128A11B9
:100F9A0001270A128A110030F000F1000A128A11A0
:100FAA0009270A128A110130F5000030F600DE2FF7
:100FBA00DE2F7608003A0319E32FDE2F7508003A70
:100FCA000319372F013A0319412F033A0319512FF5
:100FDA00013A0319742F073A0319962F013A031994
:100FEA00C02FDE2FDE2FDE2F0A128A11002883017E
:060FFA000A128A11332FD8
:04400E00D4E0FFFFFC
:00000001FF
